:1007ED00753000752FC2752E01752D00E4FF1205B1
:1007FD00D3E4753032F52FF52EF52DFF12054F7D13
:0F080D00607F041207777D5AE4FF1207B280F76D
:0808B7008F178E168D158C14AD
:0D08BF00781474FF120415EC4D4E4F70F3C9
:0108CC002209
:1006BC008F1F8E1E8D1D8C1CE4FFFEFDFCAB1FAA34
:1006CC001EA91DA81CD31204024051E47523BEF5CB
:1006DC0022F521F520E4FFFEFDFCAB23AA22A92183
:1006EC00A820D3120402401AE52324FFF523E522A7
:1006FC0034FFF522E52134FFF521E52034FFF52008
:10070C0080D3E51F24FFF51FE51E34FFF51EE51D04
:0C071C0034FFF51DE51C34FFF51C809C2B
:0107280022AE
:0408F80003FCFC03FE
:10043300EF702DEB14601414601914601C24036016
:100443000302054EEDF45294529322ED4294EDF4DF
:10045300529322EDF452948003ED4294ED429322A1
:10046300EF6401702CEB14601314601814601B24E8
:1004730003600302054EEDF452928003ED4292EBCA
:10048300F4529122EDF452928003ED4292EB4291A9
:1004930022EF6402702CEB14601314601814601BB9
:1004A3002403600302054EEDF452968003ED429659
:1004B300EBF4529522EDF452968003ED4296EB4213
:1004C3009522EF64037029EB146010146015146017
:1004D3001824037076EDF452B28003ED42B2EBF4CC
:1004E30052B122EDF452B28003ED42B2EB42B1229B
:1004F300EF64047029EB1460101460151460182461
:10050300037048EDF452B48003ED42B4EBF452B3FC
:1005130022EDF452B48003ED42B4EB42B322EF6414
:10052300057028EB14601014601514601824037010
:100533001AEDF452CA8003ED42CAEBF452C922ED1C
:0C054300F452CA8003ED42CAEB42C92208
:1005D3008F2CE52C703653877F759850438E047F9C
:1005E30020FEFDFCAB30AA2FA92EA82D1202D7A8FE
:1005F30004A905AA06AB077F007EC07DA87C001274
:100603000362EFF404F59C438E018037E52C64010B
:100613007036538EF7759A50438E047F20FEFDFC8F
:10062300AB30AA2FA92EA82D1202D7A804A905AA78
:1006330006AB077F007EC07DA87C00120362EFF447
:0A06430004F59C438E10D322C3225D
:0C08E0008F34AD34E4FF120867AF3422FF
:10086700EF70098D993099FDC299D322BF010C8D84
:0D0877009BE59A30E5FB539AFDD322C32286
:10088400EF7009309813AE99C298800DBF010AE544
:0B0894009A30E005AE9B539AFEAF06C1
:01089F002236
:100845008F24782874FF120415EC4D4E4F60121258
:1008550002BEFDAF24120867740129F9E43AFA8053
:02086500E1228E
:10081C008B318A328933AE07AB31AA32A93312023B
:10082C00BE6015AF060533E5337002053214F912BC
:09083C0002BEFD12086780E022F3
:08064D008F088B098A0A890B52
:1006550078107C007D007BFF7A0879F87E007F02A8
:1006650012029878127C007D007BFF7A0879FA7E69
:10067500007F021202987B007A007910E4752B0244
:10068500F52AF529F528AF08120845AB09AA0AA9E4
:100695000B850F2B850E2A850D29850C28AF081291
:1006A50008457B007A007912E4752B02F52AF529B5
:0706B500F528AF080208451B
:10077700E4FBFA90000204A807088002C333D8FC00
:10078700429DE4F5BDF5BEED44804FF5BCE582150D
:1007970082AE83700215834E60107A137B88EB1B41
:0A07A700AE0270011A4E60E580F406
:0107B1002225
:1008A000EF44884DF5BC00000000E5BC30E4FB538C
:0708B000BCEFAFBD7E00228A
:10072900E4F5D8F5E9F5F9ED24FE601924FE601A1F
:1007390024FE601B24FE601C24FC601D240C701C1C
:1007490075D908801775D902801275D905800D757C
:10075900D906800875D9078003E4F5D9EF14600834
:0E07690004700875DA42800375DB42D2DE228E
:10054F008F2C75890275D904E47FE87E03FDFCAB1F
:10055F0030AA2FA92EA82DD3120402401C758E800D
:10056F00AB30AA2FA92EA82D7F007EC07DA87C00BE
:10057F00120362E4FB7A018023538E7FAB30AA2FE4
:10058F00A92EA82D7F007EC07DA87C00120362E4F7
:10059F00FB7A01F9F8120362E47B0CFAF9F8120303
:1005AF0062EFF404F58AF58CE4F5D8F5E9F5F9E591
:1005BF002C14600804700875DA42800375DB42D290
:0405CF00DED28C22CA
:1008CD00EF14600804700B8DEA8DFA22AF058FEBE3
:0308DD008FFB226C
:1007B2008D2CEF14601C047031AC2CE41201137BFD
:1007C2000A7AD7792378401200031201478FEA8F01
:1007D200FA22AC2CE41201137B0A7AD779237840EF
:0B07E2001200031201478FEB8FFB2277
:10000300EC4D6011E8497017ED33EC3304600DE4F7
:10001300FCFFFEFD22E933E8330470F80201B3125A
:10002300017E58046009E4CC24815006285009025B
:1000330001BD2840030201BAC0E0EB4A7044B98015
:1000430006D0E0FB0201A9EF4E701CBD8008EBFF58
:10005300EAFEE9FD80EBE98DF0A4FEE5F00200EC99
:10006300E9CDF9EAFEEBFFEF89F0A4FCE5F0CE89D8
:10007300F0A42EFFE435F0CD89F0A42DFEE435F095
:100083008067EF4E7005BD80D780C3EF8BF0A4ACC3
:10009300F0EE8BF0A42CFCE435F0F8EF8AF0A42CFE
:1000A300E5F038FCE433CB8DF0A42CFCE5F03BF811
:1000B300EE8AF0A42CFCE5F038F8E433CF89F0A401
:1000C3002CFCE5F038CF3400CE89F0A42FFFE5F007
:1000D3003EFEE433C98DF0A42EFEE5F039CD8AF05F
:1000E300A42FFFE5F03EFEE43DFD33D0E0FB5007D7
:1000F3000BBB000F0201BDEC2CFCEF33FFEE33FE14
:06010300ED33FD02019541
:1001090075F020800E75F010800575F0087D007E71
:10011900007F003392D530D5031203F4EC3340103D
:10012900EF33FFEE33FEED33FDEC33FCD5F0ED227A
:0E013900E5F0247EA2D513CC92E7CDCEFF22B6
:10014700EDD2E7CD33EC3392D524814006E4FFFEB0
:10015700FDFC22FCE4CFCECDCC24E0501174FF800F
:10016700EDC3CC13CCCD13CDCE13CECF13CF0470AC
:07017700F030D5DE0203F4B5
:10017E00E9D2E7C933E833F892D5EDD2E7CD33ECC7
:07018E0033FC5002B2D52240
:10019500EC30E7100FBF000C0EBE00080DBD0004CB
:1001A5000BEB6014A2D5EB13FCED92E7FD2274FF77
:1001B500FCFDFEFF22E480F8A2D574FF13FC7D80D0
:0301C500E480EFE4
:030000000208EC07
:0C08EC00787FE4F6D8FD7581340207ED3A
:1001C800E709F608DFFA8046E709F208DFFA803E19
:1001D80088828C83E709F0A3DFFA8032E309F60806
:1001E800DFFA8078E309F208DFFA807088828C836E
:1001F800E309F0A3DFFA806489828A83E0A3F60822
:10020800DFFA805889828A83E0A3F208DFFA804CFB
:1002180080D280FA80C680D4806980F280338010D2
:1002280080A680EA809A80A880DA80E280CA80333B
:1002380089828A83ECFAE493A3C8C582C8CCC583B3
:10024800CCF0A3C8C582C8CCC583CCDFE9DEE78083
:100258000D89828A83E493A3F608DFF9ECFAA9F002
:10026800EDFB2289828A83ECFAE0A3C8C582C8CC58
:10027800C583CCF0A3C8C582C8CCC583CCDFEADE71
:10028800E880DB89828A83E493A3F208DFF980CCD3
:1002980088F0EF60010E4E60C388F0ED2402B404CC
:1002A8000050B9F582EB2402B4040050AF23234573
:0602B8008223900218737E
:1002BE00BB010689828A83E0225002E722BBFE023E
:0902CE00E32289828A83E4932271
:1002D700E88FF0A4CC8BF0A42CFCE98EF0A42CFCC6
:1002E7008AF0EDA42CFCEA8EF0A4CDA8F08BF0A444
:1002F7002DCC3825F0FDE98FF0A42CCD35F0FCEBA3
:100307008EF0A4FEA9F0EB8FF0A4CFC5F02ECD3967
:0F031700FEE43CFCEAA42DCE35F0FDE43CFC22D4
:1003260075F008758200EF2FFFEE33FECD33CDCC8E
:1003360033CCC58233C5829BED9AEC99E582984011
:100346000CF582EE9BFEED9AFDEC99FC0FD5F0D6EE
:10035600E4CEFBE4CDFAE4CCF9A88222B800C1B918
:100366000059BA002DEC8BF084CFCECDFCE5F0CB56
:10037600F97818EF2FFFEE33FEED33FDEC33FCEB8F
:1003860033FB10D703994004EB99FB0FD8E5E4F94A
:10039600FA227818EF2FFFEE33FEED33FDEC33FC37
:1003A600C933C910D7059BE99A4007EC9BFCE99A2B
:1003B600F90FD8E0E4C9FAE4CCFB2275F010EF2F70
:1003C600FFEE33FEED33FDCC33CCC833C810D70770
:1003D6009BEC9AE899400AED9BFDEC9AFCE899F8AB
:0E03E6000FD5F0DAE4CDFBE4CCFAE4C8F9223E
:0E03F400C3E49FFFE49EFEE49DFDE49CFC221A
:10040200EB9FF5F0EA9E42F0E99D42F0E89C45F050
:0104120022C7
:100413007401FF3395E0FEFDFC080808E6CF2FF6D4
:1004230018E6CE3EF618E6CD3DF618E6CC3CF622AD
:00000001FF
