:030000000201708A
:0C017000787FE4F6D8FD7581130201B71A
:09031C000112000113000111009F
:1000DB0012000E1202D8E5137003020168E511122B
:1000EB000281011541012442013643013944013E8D
:1000FB0061015462014C63015C64014065016066FF
:10010B0001506701586800000165740A2508F5085D
:10011B00C3648094E44043801574F62508F508D336
:10012B006480941C503475089C802FE4800B7508F8
:10013B006480278008E508F404FF1203397F5A8096
:10014B0016E4FF80127FB4800E7F2D800A7F87809C
:10015B00067F2D80027F871202A7E4F513AF0812EA
:05016B0003390200E170
:030023000203498C
:0C034900309808C2988599117513013294
:03000B0002002EC2
:10002E00C0E0C0F0C0D075D000C000C004C005C094
:10003E0006C007758CFF758A9C050AE50A700205D5
:10004E0009C3E510945AE50F94005039C3745A95BC
:10005E0010FFE4950FFE7C007D0F12026FC3E50AC0
:10006E009FE5099E5004D2828052050EE50E700265
:10007E00050DC282D282C282D394C4E50D9409408A
:10008E003BC28C8037E51024A6FFE50F34FFFE7CC3
:10009E00007D1412026FC3E50A9FE5099E5004D23B
:1000AE00838019050EE50E7002050DC283D283C240
:1000BE0083D394C4E50D94094002C28CD007D006B8
:0D00CE00D005D004D000D0D0D0F0D0E0326A
:03002B000201FCD3
:1001FC00C0E0C0D075D000C006C007C2CF050CE56A
:10020C000C7002050BD39464E50B940040067E0041
:10021C007F018004AE0BAF0C8E0B8F0CC3E5086412
:10022C008094804018AF08EF3395E0FEC3E50C9F37
:10023C00E50B9E5004D2848021C284801DAF08EF50
:10024C003395E0FEEF2464FFE43EFED3E50C9FE51E
:10025C000B9E4004D2858002C285D007D006D0D038
:03026C00D0E032AD
:10000E00438920759850758DFD758BFDD2AFD2AC9E
:05001E00D2BCD28E22CD
:0C035500C2AC8F993099FDC299D2AC2245
:10032500010800020B000002090000020F005A023A
:030335000D0000B8
:1002D800438901758CFF758A9C75CBFF75CAECD272
:1002E800B9D2AFD2A9D2ADC284C285C282C283C2FA
:0402F8008CD2CA22B8
:100339008F08C3EF648094804003C28522C284225F
:1002A700EF750F00F510BF5A10C282C283E4F5093B
:1002B700F50AF50DF50EC28C22EFD3945A4004C20D
:1002C700828002C283E4F509F50AF50DF50ED28C9A
:0102D7002204
:1002FC00E4FDFCC3ED9FEC9E5015E4FBFA0BBB0038
:0F030C00010AEB646E4A70F50DBD00010C80E430
:01031B0022BF
:10017C000200DBE493A3F8E493A34003F68001F2BE
:10018C0008DFF48029E493A3F85407240CC8C33384
:10019C00C4540F4420C8834004F456800146F6DF53
:1001AC00E4800B010204081020408090031CE47EC4
:1001BC00019360BCA3FF543F30E509541FFEE49348
:1001CC00A360010ECF54C025E060A840B8E493A30F
:1001DC00FAE493A3F8E493A3C8C582C8CAC583CA3A
:1001EC00F0A3C8C582C8CAC583CADFE9DEE780BEF2
:0103380000C4
:10026F00EF8DF0A4A8F0CF8CF0A428CE8DF0A42EA3
:02027F00FE225D
:10028100D083D082F8E4937012740193700DA3A30C
:1002910093F8740193F5828883E473740293686020
:0602A100EFA3A3A380DF20
:00000001FF
