:03000000020E509D
:0C0E5000787FE4F6D8FD75817E020E97D5
:1012A400BEE0C0EB3A256409B4A5BFD8CAB1BCE41A
:1012B4003A25640A000AC7EBCAE4C8EBBEE0C0EBF7
:0312C400210A00FC
:100003000116000112000617000000000000021490
:06001300FFFF02100000D7
:100F6000121356E4752832F527F526F525FF120EE3
:100F7000DC7528007527C2752601752500E4FF126F
:0C0F80000FE1D2ACD2AFE516640170396D
:100F8C00FB7A007917120DA28F828E837C007DC8AC
:100F9C001206738E148F157512017BFF7A1279A4C9
:100FAC00858344858245851446851547120879C288
:090FBC008FE4F58B758DDCF51650
:100FC500E512600B7D0AE4FF12133FD28E80B27DDD
:0C0FD5000CE4FF12133FD29CC28E80A5DA
:10135600538EBF53890F438910E4F58B758DDCC21C
:061366008FC28ED2AB2203
:0300230002121BAB
:10121B00C0E0C0D075D008309823C298741725133E
:10122B00F8A699051374162513F8E6B42E0F741748
:10123B002513F87600751601751300C29CD0D0D01B
:02124B00E0328F
:03001B000211854A
:0D118500C0E0C0F0C083C082C0D075D008AB
:10119200758B00758DDC0511E51170020510AE101E
:1011A200FF7C007D0A120673C3EF9515EE9514407D
:1011B200127512007510007511007BFF7A1279B951
:0311C20012087997
:0B11C500D0D0D082D083D0F0D0E03238
:10136C008F7D8E7C8D7B8C7A787A74FF1207C3EC20
:06137C004D4E4F70F322FC
:1010CA008F6D8E6C8D6B8C6AE4FFFEFDFCAB6DAA96
:1010DA006CA96BA86AD31207B04051E47571BEF5CA
:1010EA0070F56FF56EE4FFFEFDFCAB71AA70A96F97
:1010FA00A86ED31207B0401AE57124FFF571E570A6
:10110A0034FFF570E56F34FFF56FE56E34FFF56E69
:10111A0080D3E56D24FFF56DE56C34FFF56CE56B66
:0C112A0034FFF56BE56A34FFF56A809C29
:011136002296
:04001E0003FCFC03E0
:100C8600EF702DEB14601414601914601C240360BB
:100C960003020DA1EDF45294529322ED4294EDF429
:100CA600529322EDF452948003ED4294ED42932246
:100CB600EF6401702CEB14601314601814601B248D
:100CC600036003020DA1EDF452928003ED4292EB14
:100CD600F4529122EDF452928003ED4292EB42914E
:100CE60022EF6402702CEB14601314601814601B5E
:100CF60024036003020DA1EDF452968003ED4296A3
:100D0600EBF4529522EDF452968003ED4296EB42B7
:100D16009522EF64037029EB1460101460151460BB
:100D26001824037076EDF452B28003ED42B2EBF470
:100D360052B122EDF452B28003ED42B2EB42B1223F
:100D4600EF64047029EB1460101460151460182405
:100D5600037048EDF452B48003ED42B4EBF452B3A1
:100D660022EDF452B48003ED42B4EB42B322EF64B9
:100D7600057028EB146010146015146018240370B5
:100D86001AEDF452CA8003ED42CAEBF452C922EDC1
:0C0D9600F452CA8003ED42CAEB42C922AD
:100FE1008F24E524703653877F759850438E047F94
:100FF10020FEFDFCAB28AA27A926A825120685A854
:1010010004A905AA06AB077F007EC07DA87C00125B
:101011000710EFF404F59C438E018037E524640149
:101021007036538EF7759A50438E047F20FEFDFC77
:10103100AB28AA27A926A825120685A804A905AACE
:1010410006AB077F007EC07DA87C00120710EFF47D
:0A10510004F59C438E10D322C32245
:0C13A4008F5DAD5DE4FF1212E9AF5D2229
:1012E900EF70098D993099FDC299D322BF010C8DF8
:0D12F9009BE59A30E5FB539AFDD322C322FA
:10132300EF7009309813AE99C298800DBF010AE59A
:0B1333009A30E005AE9B539AFEAF0617
:01133E00228C
:1012C7008F72787674FF1207C3EC4D4E4F6012127F
:1012D700061BFDAF721212E9740129F9E43AFA808C
:0212E700E12202
:10127B008B1D8A1E891FAE07AB1DAA1EA91F120646
:10128B001B6015AF06051FE51F7002051E14F91232
:09129B00061BFD1212E980E0229D
:08105B008F5E8B5F8A608961E2
:1010630078667C007D007BFF7A00791E7E007F021C
:101073001205F578687C007D007BFF7A0079207E7D
:10108300007F021205F57B007A007966E475790228
:10109300F578F577F576AF5E1212C7AB5FAA60A954
:1010A30061856579856478856377856276AF5E123D
:1010B30012C77B007A007968E4757902F578F577D1
:0710C300F576AF5E0212C7D3
:10124D00900002EF429DE4F5BDF5BEED4480F5BC86
:10125D00E5821582AE83700215834E60107A137B82
:0D126D0088EB1BAE0270011A4E60E580F4A4
:01127A002251
:10130600EF44884DF5BC00000000E5BC30E4FB531B
:0D131600BCEFAFBEADBDED2FFFE433FE22F6
:10113700E4F5D8F5E9F5F9ED24FE601924FE601A07
:1011470024FE601B24FE601C24FC601D240C701C04
:1011570075D908801775D902801275D905800D7564
:10116700D906800875D9078003E4F5D9EF1460081C
:0E11770004700875DA42800375DB42D2DE2276
:100EDC008F2475890275D904E47FE87E03FDFCAB91
:100EEC0028AA27A926A825D31207B0401C758E80E6
:100EFC00AB28AA27A926A8257F007EC07DA87C0048
:100F0C00120710E4FB7A018023538E7FAB28AA27AB
:100F1C00A926A8257F007EC07DA87C00120710E4BE
:100F2C00FB7A01F9F8120710E47B0CFAF9F81207B6
:100F3C0010EFF404F58AF58CE4F5D8F5E9F5F9E54C
:100F4C002414600804700875DA42800375DB42D201
:040F5C00DED28C2233
:10133F00EF14600B04700FEDF404F5EAF5FA22EDEB
:07134F00F404F5EBF5FB22AD
:1011D0008D7EEF146024047041C37464957EFDE439
:1011E0009400FCE41201317B0A7AD779237840120B
:1011F000002612016A8FEA8FFA22C37464957EFD7D
:10120000E49400FCE41201317B0A7AD77923784018
:0B12100012002612016A8FEB8FFB22F8
:10002600EC4D6011E8497017ED33EC3304600DE4D4
:10003600FCFFFEFD22E933E8330470F80201D61214
:1000460001A158046009E4CC248150062850090215
:1000560001E02840030201DDC0E0EB4A7044B980AC
:1000660006D0E0FB0201CCEF4E701CBD8008EBFF12
:10007600EAFEE9FD80EBE98DF0A4FEE5F002010F52
:10008600E9CDF9EAFEEBFFEF89F0A4FCE5F0CE89B5
:10009600F0A42EFFE435F0CD89F0A42DFEE435F072
:1000A6008067EF4E7005BD80D780C3EF8BF0A4ACA0
:1000B600F0EE8BF0A42CFCE435F0F8EF8AF0A42CDB
:1000C600E5F038FCE433CB8DF0A42CFCE5F03BF8EE
:1000D600EE8AF0A42CFCE5F038F8E433CF89F0A4DE
:1000E6002CFCE5F038CF3400CE89F0A42FFFE5F0E4
:1000F6003EFEE433C98DF0A42EFEE5F039CD8AF03C
:10010600A42FFFE5F03EFEE43DFD33D0E0FB5007B3
:100116000BBB000F0201E0EC2CFCEF33FFEE33FECD
:06012600ED33FD0201B8FB
:10012C0075F020800E75F010800575F0087D007E4E
:10013C00007F003392D530D5031207A2EC33401068
:10014C00EF33FFEE33FEED33FDEC33FCD5F0ED2257
:0E015C00E5F0247EA2D513CC92E7CDCEFF2293
:10016A00EDD2E7CD33EC3392D524814006E4FFFE8D
:10017A00FDFC22FCE4CFCECDCC24E0501174FF80EC
:10018A00EDC3CC13CCCD13CDCE13CECF13CF047089
:07019A00F030D5DE0207A2E0
:10081700E5582444F8E60558227841301002784418
:10082700E475F0011207E102061B2009EB7F2ED2C7
:10083700098018EF540F2490D43440D4FF300D0BA7
:10084700EF24BFB41A0050032461FFE55960021575
:1008570059055CE55C7002055B30100D7841E47565
:10086700F0011207E1EF0206610213A47403D2102C
:100877008003E4C210F5588B418A428943E4F55955
:10088700F55BF55CE55960077F2012085280F57526
:100897005AFFC20AC209C20BC20CC20EC20FC21152
:1008A700120820FF700D3010057F00120863AF5C3F
:1008B700AE5B22B4255FC2D5C20D120820FF24D03B
:1008C700B40A00501A75F00A785930D50508B6FFF2
:1008D7000106C6A426F620D5047002D20C80D924BE
:1008E700CFB41A00EF5004C2E5D20D020B50D20A62
:1008F70080C6D20980C0D20B80BCD2D580BAD20EB6
:1009070080B47F20120852200B077401B5590040AC
:10091700F1120817FF12085202088BD211D20F806A
:1009270095120817FB120817FA120817F94A4B70A5
:100937000679477A0C7BFF200B2EE559602A7E004B
:100947008E8275830012063460060EEE655A70F0CB
:10095700C2D5EBC0E0EAC0E0E9C0E0EE120BB0D0D0
:10096700E0F9D0E0FAD0E0FB12061BFF60AAEBC06B
:10097700E0EAC0E0E9C0E0120852D0E02401F9D073
:10098700E03400FAD0E0FBE55A0460DCD55AD980A0
:1009970087D20B80A2120B9360F7E55A70010412FD
:1009A70001EBA95A600DE55A600914F55A120C3A81
:1009B700EF60F3EA30E702F404C3995077EAF425CD
:1009C7005A0430E701E404F55A800D120B9360C115
:1009D700EA055A255A1201EBEA7857F630E701E49F
:1009E700255A04D55A04200E0114120BB0E4C0E0B6
:1009F700120C3A7857E6601320E70714F612083A04
:100A0700802204F6D0E014C0E07F0012083AE55ACD
:100A17006007120831155A800B300E03120831D0C7
:100A2700E002088BD0E00480C5120B9360A0E55A62
:100A3700041201EB7857EAF6E55A200E026001042A
:050A47002404120BB0B5
:100A4C0074FF04C0E0120C3A12083AE55A200E0268
:100A5C006003120831D0E0B55AE87F45120844789B
:100A6C0057E67F2B30E7047F2DF404C0E0120852C8
:100A7C00D0E075F00A84C0F012083BD0E012083BBD
:100A8C0002088B791080027908C20FC2118008D23B
:100A9C00D5790A8004790AC2D5E55A047002F55A50
:100AAC00E4FAFDFEFF120817FC7B08200A1312085B
:100ABC0017FD7B1030090A120817FE120817FF7B6E
:100ACC0020EC3382D592D55013C3E43009069FFF36
:100ADC00E49EFEE4200A039DFDE49CFCE4CBF8C2FA
:100AEC000AEC700CCFCECDCCE824F8F870F380175C
:100AFC00C3EF33FFEE33FEED33FDEC33FCEB33FB96
:100B0C00994002FB0FD8E9EB300A05F8D0E0C44855
:100B1C00B20AC0E00AEC4D4E4F78207B0070C2EA5E
:100B2C00B55A0040BCC0E0120BB2D0F0D0E0200AA5
:100B3C0004C4C0E0C4B20AC0F012083BD0F0D5F037
:100B4C00EB02088B1207F10928530A8F5808F94C4D
:100B5C0008F5420A934F0A9B440A9B49090E430A23
:100B6C00A15509D2460A3045099C470C675008FD2F
:100B7C002D09012E09242B0905230922200C502AAA
:100B8C0008BD480000091CE55AB4FF03755A06124B
:100B9C000817FC120817FD120817FE120817FF7829
:100BAC005002021A790AA2D5200C14300E09B91081
:100BBC00020404B9080104A2D5200F02500104203C
:100BCC000B68920BB559005034C0E07F20300C19E3
:100BDC007F30A20B720F720E500F120C09C20BC297
:100BEC000FC20EC2117F30800F300E03E9C0E0122D
:100BFC000852300E03D0E0F9D0E0B559CC300E17C6
:100C0C007F30B9100C1208527F58300D077F788056
:100C1C0003B90803120852300B057F2D0208527FCE
:100C2C00202011F87F2B200FF322920B80CF7F0016
:100C3C00B4070050052450F8E6FF22286E756C6C42
:100C4C002900D20A120817300AF8C20A785930D58E
:100C5C000108F60208BD2D50434958120817240309
:100C6C00B405004001E4900C6293120843743A12EC
:0A0C7C000843D20C755904020A8FD8
:1001A100E9D2E7C933E833F892D5EDD2E7CD33ECA4
:0701B10033FC5002B2D5221D
:1001B800EC30E7100FBF000C0EBE00080DBD0004A8
:1001C8000BEB6014A2D5EB13FCED92E7FD2274FF54
:1001D800FCFDFEFF22E480F8A2D574FF13FC7D80AD
:0301E800E480EFC1
:1001EB00F920E72824F950037907E4F42402FB18DB
:1001FB00DBFDE624FB5014E9600DE4F618E604F68B
:0F020B00B40A08E4F6D9F57401F60A22C2D52226
:10021A00ED33EC3392D5FA602AB4FF33EDC2E77BB3
:10022A00FF60067A02793FE4227A02794820D504EF
:10023A007A027943224E614E002B494E46002D49DF
:10024A004E4600E47A08F608DAFC7B00740722E8D6
:10025A00C0E0ECC0E0EDC0E0EEC0E0EFC0E0EA755F
:10026A00F010A4CAABF075F04DA42BFBE435F0FCFA
:10027A00EA2410FAEB34C5FBEC34D9FCEDC2E7FFF3
:10028A0075F056A4F42411C5F0F434C58FF0A42AED
:10029A00E5F03BE43CF620E7141204E5D0E0FFD099
:1002AA00E0FED0E0FDD0E0FC1204188014F4041241
:1002BA0004E5D0E0FFD0E0FED0E0FDD0E0FC120083
:1002CA0026D0E0F8E6FAEDD2E7CD33EC332482FB10
:1002DA00E4C3CF33CFCE33CECD33CD33DBF37B077D
:1002EA0075F00A846004F6081B0AE5F0F6088FF038
:1002FA00740AA4FFACF08EF0740AA42CFEACF05081
:10030A00010C8DF0740AA42CFDE435F0F608DBDE4E
:03031A0074072243
:10031D000201D6E86480F8E933E83360110460F037
:10032D00ED33EC337009E8FCE9FDEAFEEBFF220446
:10033D0060DED3EB9FEA9EE99DE8C2E78CF0C2F741
:10034D0095F0400CE8CCF8E9CDF9EACEFAEBCFFB0D
:10035D001201A185D0F05804700320D5B3E80470C4
:10036D00075002B2D50201E092D5EC0460F7E4CC5F
:10037D00C0E0C398F8603B94186008400DD0E0FBD6
:10038D000201B8E4FBFAC9FC8028E830E406E4C9B0
:10039D00FBE4CAFCE830E305E4C9CACBFCE854072A
:1003AD006010F8C3E913F9EA13FAEB13FBEC13FC35
:1003BD00D8F130F52FC3E49CFCEF9BFFEE9AFEEDD8
:1003CD0099FDD0E0FBEF4E4D4C701222DB03020184
:1003DD00DDEC2CFCEF33FFEE33FEED33FDED30E7BE
:1003ED00EB0201B8EF2BFFEE3AFEED39FDD0E0FB4D
:1003FD0050130BBB00030201E0ED13FDEE13FEEFF6
:08040D0013FFEC13FC0201B81F
:100415000201E0EC5D046005E8590470030201D6B1
:100425001201A1580460F6EC4860F2EC7004FDFE80
:10043500FF22C860DB2481C85009C39860025006BA
:100445000201DD9850CAF582E9294B4A7005AB8255
:100455000201CC75F0007C1A7880C3EF9BEE9AED13
:1004650099400DC3EF9BFFEE9AFEED99FDE842F032
:10047500DC23ACF0D0E0FFD0E0FED0E0FDAB822085
:10048500E7101BEB60BAEC2CFCEF33FFEE33FEED0F
:1004950033FD0201B8E803F830E705C0F075F00058
:1004A500EF2FFFEE33FEED33FD40B830E7C280AAF3
:1004B5003F8000004120000042C80000447A00004F
:1004C500461C400047C35000497424004B189680D1
:1004D5004CBEBC205A0E1BCA6753C21C749DC5AEC8
:1004E500FB60065407601C2323120513EB54386088
:1004F500091204FF12050E120026ECF8EDF9EEFACA
:10050500EFCB22EB12050E80F1543803241C900426
:10051500B5FE93FC0EEE93FD0EEE930ECE93FF22E9
:100E5C00020F60E493A3F8E493A34003F68001F23D
:100E6C0008DFF48029E493A3F85407240CC8C33397
:100E7C00C4540F4420C8834004F456800146F6DF66
:100E8C00E4800B0102040810204080900003E47EF3
:100E9C00019360BCA3FF543F30E509541FFEE4935B
:100EAC00A360010ECF54C025E060A840B8E493A322
:100EBC00FAE493A3F8E493A3C8C582C8CAC583CA4D
:100ECC00F0A3C8C582C8CAC583CADFE9DEE780BE05
:0100190000E6
:10052500E709F608DFFA8046E709F208DFFA803EB8
:1005350088828C83E709F0A3DFFA8032E309F608A5
:10054500DFFA8078E309F208DFFA807088828C830D
:10055500E309F0A3DFFA806489828A83E0A3F608C1
:10056500DFFA805889828A83E0A3F208DFFA804C9B
:1005750080D280FA80C680D4806980F28033801072
:1005850080A680EA809A80A880DA80E280CA8033DB
:1005950089828A83ECFAE493A3C8C582C8CCC58353
:1005A500CCF0A3C8C582C8CCC583CCDFE9DEE78023
:1005B5000D89828A83E493A3F608DFF9ECFAA9F0A2
:1005C500EDFB2289828A83ECFAE0A3C8C582C8CCF8
:1005D500C583CCF0A3C8C582C8CCC583CCDFEADE11
:1005E500E880DB89828A83E493A3F208DFF980CC73
:1005F50088F0EF60010E4E60C388F0ED2402B4046C
:100605000050B9F582EB2402B4040050AF23234512
:06061500822390057573BD
:10061B00BB010689828A83E0225002E722BBFE02DD
:09062B00E32289828A83E4932210
:10063400BB010CE58229F582E5833AF583E022507B
:1006440006E92582F8E622BBFE06E92582F8E222C5
:0D065400E58229F582E5833AF583E49322DF
:10066100BB010689828A83F0225002F722BBFE0178
:02067100F32272
:10067300EF8DF0A4A8F0CF8CF0A428CE8DF0A42E9B
:02068300FE2255
:10068500E88FF0A4CC8BF0A42CFCE98EF0A42CFC14
:100695008AF0EDA42CFCEA8EF0A4CDA8F08BF0A492
:1006A5002DCC3825F0FDE98FF0A42CCD35F0FCEBF1
:1006B5008EF0A4FEA9F0EB8FF0A4CFC5F02ECD39B6
:0F06C500FEE43CFCEAA42DCE35F0FDE43CFC2223
:1006D40075F008758200EF2FFFEE33FECD33CDCCDD
:1006E40033CCC58233C5829BED9AEC99E582984060
:1006F4000CF582EE9BFEED9AFDEC99FC0FD5F0D63D
:10070400E4CEFBE4CDFAE4CCF9A88222B800C1B966
:100714000059BA002DEC8BF084CFCECDFCE5F0CBA4
:10072400F97818EF2FFFEE33FEED33FDEC33FCEBDD
:1007340033FB10D703994004EB99FB0FD8E5E4F998
:10074400FA227818EF2FFFEE33FEED33FDEC33FC85
:10075400C933C910D7059BE99A4007EC9BFCE99A79
:10076400F90FD8E0E4C9FAE4CCFB2275F010EF2FBE
:10077400FFEE33FEED33FDCC33CCC833C810D707BE
:100784009BEC9AE899400AED9BFDEC9AFCE899F8F9
:0E0794000FD5F0DAE4CDFBE4CCFAE4C8F9228C
:0E07A200C3E49FFFE49EFEE49DFDE49CFC2268
:1007B000EB9FF5F0EA9E42F0E99D42F0E89C45F09F
:0107C0002216
:1007C1007401FF3395E0FEFDFC080808E6CF2FF623
:1007D10018E6CE3EF618E6CD3DF618E6CC3CF622FC
:1007E100FAE6FB0808E6F925F0F618E6CA3AF62219
:1007F100D083D082F8E4937012740193700DA3A397
:1008010093F8740193F5828883E4737402936860AA
:06081100EFA3A3A380DFAA
:100DA2008B248A258926AB24AA25A92612061BFF95
:100DB200121382500D74012526F526E43525F525FA
:100DC20080E4D200AB24AA25A92612061BFF642BBD
:100DD2006004EFB42D1BAB240526E526AA2570027C
:100DE200052514F912061B642D6003D38001C392FA
:100DF20000E4F527F528AB24AA25A92612061BFF35
:100E02001213955036AB24AA25A92612061BFF33CE
:100E120095E0FEEF24D0FBEE34FFFAAE27AF287C3C
:100E2200007D0A120673EF2BF528EE3AF5277401BE
:100E32002526F526E43525F52580BB300006AE27AC
:0E0E4200AF288009C3E49528FFE49527FE221F
:0F139500EFC394304007EF943A50028001C32217
:10138200EFC394094005EF940E4003BF2003D380BE
:0313920001C32272
:00000001FF
