:03000000020141B9
:0C014100787FE4F6D8FD75811602018875
:10002E00120381E500600A120309AF0812035A8019
:10003E00F2AF0B7802EF08800123D8FDD36480F86D
:10004E00E5136480985016AF0B7802EF0880010319
:10005E00D8FDC36480F8E5136480985005850B13B2
:10006E00800385130BE513120222010C0200FA0421
:10007E0000E80800A31000D91800B52000C7400002
:10008E00974200977E0000011C7F5A1203C5AF08ED
:10009E0012035A8079E50824F6FF12035A7F55128F
:1000AE0003C57512038067E50824ECFF12035A7F1F
:1000BE004B1203C57512028055E50824ECFF12039E
:1000CE005A7F371203C57512018043AF0812035AC7
:1000DE007F5A1203C57512048034E50824F6FF1208
:1000EE00035A7F5B1203C57512058022E50824ECC6
:1000FE00FF12035A7F691203C57512068010E508B8
:10010E0024ECFF12035A7F781203C5751207C3E55C
:10011E0012950AFFD3648094825008C3EF648094D2
:10012E007E5005850A12800385120AAF0812035A03
:03013E0002003F7D
:03002B000202B21C
:1002B200C0E0C0D075D000C006C007C2CF050FE5B0
:1002C2000F7002050EE5A0F4547EF513D3E50F94EA
:1002D20032E50E940040067E007F018004AE0EAF30
:1002E2000F8E0E8F0FE509A2E713FF3395E0FEC3D1
:1002F200E50F9FE50E9E5004D2848002C284D0078F
:07030200D006D0D0D0E0329C
:03000B00020248A6
:10024800C0E0C0F0C0D075D000C000C004C005C078
:1002580006C007758CFF758AA4050DE50D700205AB
:100268000CD394C8E50C940040067E007F018004FE
:10027800AE0CAF0D8E0C8F0DAE14AF157C007D0942
:100288001201CDEF2405FFE43EFEC3E50D9FE50C0A
:100298009E5004D2828002C282D007D006D005D0F8
:0A02A80004D000D0D0D0F0D0E03236
:10000E00010800010B18010A04020E0000020C0088
:09001E00000214005A0210000057
:10038100438901758CFF758AA475CBFF75CAD2D2DA
:10039100B9D2AFD2A9D2ADC284C285C282C283C250
:0403A1008CD2CA220E
:10035A008F09C3E5096480948050047F008002AF4E
:10036A00098F09D3E509648094E440047F6480021C
:07037A00AF098F09C28522C3
:0E03C500C374B49FF515E49400F514C28322AE
:1003A500E4FDFCC3ED9FEC9E5015E4FBFA0BBB008E
:0F03B500010AEB646E4A70F50DBD00010C80E487
:0103C4002216
:03002700011601BE
:1003090020B31A7F0A7E001203A520B310740A25B0
:1003190008F508D3648094E4400375086420B21A90
:100329007F0A7E001203A520B21074F62508F5088D
:10033900C3648094805003E4F50820B40F7F0A7EDB
:10034900001203A520B405E4F500D28CAF0802031E
:010359005A49
:10014D0002002EE493A3F8E493A34003F68001F29A
:10015D0008DFF48029E493A3F85407240CC8C333B3
:10016D00C4540F4420C8834004F456800146F6DF82
:10017D00E4800B010204081020408090000EE47E04
:10018D00019360BCA3FF543F30E509541FFEE49377
:10019D00A360010ECF54C025E060A840B8E493A33E
:1001AD00FAE493A3F8E493A3C8C582C8CAC583CA69
:1001BD00F0A3C8C582C8CAC583CADFE9DEE780BE21
:01002A0000D5
:1001CD00BC000BBE0029EF8DF084FFADF022E4CC16
:1001DD00F875F008EF2FFFEE33FEEC33FCEE9DECDF
:1001ED00984005FCEE9DFE0FD5F0E9E4CEFD22ED25
:1001FD00F8F5F0EE8420D21CFEADF075F008EF2F6F
:10020D00FFED33FD4007985006D5F0F222C398FD5F
:05021D000FD5F0EA22FC
:10022200D083D082F8E4937012740193700DA3A36B
:1002320093F8740193F5828883E47374029368607F
:06024200EFA3A3A380DF7F
:00000001FF
